:03000000021215D4
:0C121500787FE4F6D8FD75815802125C69
:0F172300542044205320005444533A00543A00B9
:10161300042C00000000043000000000040C000053
:10162300000004083F80000004283F8000001214DB
:1016330000000000000000000000000000000000A7
:021643000000A5
:0D173200007F087E017DF3DDFEDEFCDFFAA6
:01173F002287
:100E2900E4FFFE7DA07C40AB2FAA2EA92DA82C1291
:100E39000A73E4FBFA79807844120B7C8F138E12C3
:100E49008D118C10E4FBFA79207841AF0FAE0EAD0D
:100E59000DAC0C120B7C7B0A7AD779A3783C120A69
:100E690073E4FBFAF9783F1209828F0B8E0A8D0918
:100E79008C08AB0BAA0AA909A808AF13AE12AD11C9
:100E8900AC10120B7C8F378E368D358C347F857E76
:100E99006B7D057C43AB37AA36A935A834120A7392
:100EA900AB37AA36A935A834120A73AB37AA36A9C3
:100EB90035A834120A73C004C005C006C0077F29CB
:100EC9007EDC7D7F7C43AB37AA36A935A834120A6C
:100ED90073AB37AA36A935A834120A73A804A90531
:100EE900AA06AB07D007D006D005D00412097EC0E8
:100EF90004C005C006C0077FF67E587D567C44AB0A
:100F090037AA36A935A834120A73D003D002D00102
:100F1900D000120982E4FBFAF9783F120A73AB2B6D
:100F2900AA2AA929A828120A738F338E328D318CE7
:100F390030E4FFFEFDFCAB33AA32A931A830120C14
:100F49001960025009E4F533F532F531F530E4FF63
:100F5900FE7DAF7C44AB33AA32A931A830120C19FB
:100F6900600D400BE4F533F5327531AF753044AFA0
:100F790033AE32AD31AC30120CD0AB07AA067C03CC
:100F89007DE8120DE5EF2430F5147C037DE8AF030D
:100F9900AE02120DE57E007F64CFCDCFCECCCE124E
:100FA9000DE5EF2430F515AF33AE32AD31AC30126B
:100FB9000CD0AB07AA067C007D64120DE57E007F8C
:100FC9000ACFCDCFCECCCE120DE5EF2430F5167C6D
:100FD900007D0AAF03AE02120DE5ED2430F517AB23
:100FE900147D027F241212A1AB157D027F2D1212EE
:100FF900A1AB167D027F361212A1AB177D027F3F8E
:031009000212A12F
:10117500AF0FAE0EAD0DAC0C120CD0AB07AA067CB2
:10118500037DE8120DE5EF2430F5187C037DE8AF0B
:1011950003AE02120DE57E007F64CFCDCFCECCCE5F
:1011A500120DE5EF2430F519AF0FAE0EAD0DAC0CF9
:1011B500120CD0AB07AA067C007D64120DE57E00FB
:1011C5007F0ACFCDCFCECCCE120DE5EF2430F51A68
:1011D500751B2E7C007D0AAF03AE02120DE5ED24D2
:1011E50030F51CAB187D047F181212A1AB197D04D4
:1011F5007F211212A1AB1A7D047F2A1212A1AB1B0B
:101205007D047F331212A1AB1C7D047F3C0212A129
:1016DF00759850758920758DFD758BFDE4F587D252
:0216EF008E2249
:081740008F993099FDC2992236
:10100C001216DF1216C81210C51215A4759D0F7595
:10101C00BCA07BFF7A177923E4FDFF1214E87B0355
:10102C00E4FD7F361214517B04E4FD7F4812145109
:10103C007B05E4FD7F5A1214517B06E4FD7F6C1294
:10104C0014517BFF7A17792A7D02E4FF1214E87B96
:10105C00FF7A17792F7D04E4FF1214E81213F3AC16
:10106C0006AD07E4120C978F0F8E0E8D0D8C0C7F36
:10107C000312156AAC06AD07E4120C978F2F8E2E57
:10108C008D2D8C2C120E29121175E4F526F5277472
:10109C00142527F8E6FF1217400527E527700205EF
:1010AC0026C39409E526940040E57F0D1217407F76
:0910BC000A12174012173280A33A
:10156A00E4F5BDF5BEE5BC54E044084FF5BC7FFA8E
:10157A00E5BC30E41E53BCEFAEBDEEFD7C007E0040
:10158A007802C333CE33CED8F9FFE5BE5403FDEF5C
:09159A004DFF22DFDB7E047F001F
:0115A3002225
:0F1713007D157C03ED1D70011C144C70F7DFF188
:0117220022A4
:10000300003E5149453E0000427F4000004261519D
:100013004946002141454B31001814127F10002737
:1000230045454539003C4A494930000171090503FA
:1000330000364949493600064949291E000036362B
:10004300000000005636000000081422410000148E
:10005300141414140000412214080002015109066B
:1000630000324959513E007C1211127C007F4949EC
:100073004936003E41414122007F4141221C007F1D
:1000830049494941007F09090901003E4149497A2B
:10009300007F0808087F0000417F410000204041A5
:1000A3003F01007F08142241007F40404040007F11
:1000B300020C027F007F0408107F003E4141413E55
:1000C300007F09090906003E4151215E007F09199D
:1000D30029460046494949310001017F0101003F9A
:1000E3004040403F001F2040201F003F4038403F1A
:1000F300006314081463000708700807006151497E
:10010300454300007F41410000552A552A55000010
:1001130041417F000004020102040040404040408E
:10012300000001020400002054545478007F484426
:10013300443800384444442000384444487F00385D
:100143005454541800087E0901020018A4A4A47C86
:10015300007F080404780000447D40000040808450
:100163007D00007F102844000000417F4000007C98
:1001730004180478007C08040478003844444438A4
:1001830000FC242424180018242418FC007C0804F0
:10019300040800485454542000043F444020003CC9
:1001A3004040207C001C2040201C003C4030403C50
:1001B300004428102844001CA0A0A07C00446454E0
:1001C3004C44141414141414000000000000000024
:1001D3000000000000000000000000F80000000024
:1001E300000000333000000000100C06100C060065
:1001F300000000000000000040C07840C0784000CC
:10020300043F04043F040400007088FC083000002D
:10021300001820FF211E0000F008F000E018000085
:1002230000211C031E211E0000F00888700000003E
:100233001E2123241927211010160E000000000090
:100243000000000000000000000000E018040200AD
:10025300000000071820400000020418E00000001E
:100263000040201807000000404080F0804040001C
:100273000202010F01020200000000F00000000072
:100283000101011F01010100000000000000000046
:1002930080B07000000000000000000000000000BB
:1002A3000001010101010101000000000000000044
:1002B30000303000000000000000000080601804DF
:1002C300006018060100000000E010080810E000BC
:1002D300000F102020100F00001010F80000000085
:1002E3000020203F202000000070080808887000CC
:1002F300003028242221300000300888884830004C
:100303000018202020110E000000C02010F800006B
:1003130000070424243F240000F808888808080004
:100323000019212020110E0000E010888818000019
:10033300000F112020110E0000380808C8380800EB
:100343000000003F0000000000708808088870006B
:10035300001C222121221C0000E010080810E000EC
:100363000000312222110F00000000C0C000000075
:10037300000000303000000000000080000000009A
:100383000000806000000000000080402010080092
:10039300000102040810200040404040404040005B
:1003A3000404040404040400000810204080000036
:1003B3000020100804020100007048080808F0003B
:1003C3000000003036010000C030C828E810E0000B
:1003D3000718272423140B000000C038E000000096
:1003E300203C23020227382008F888888870000000
:1003F300203F202020110E00C030080808083800D4
:10040300071820202010080008F808080810E0004A
:10041300203F202020100F0008F88888E8081000EB
:10042300203F20202320180008F88888E8081000BF
:10043300203F200003000000C030080808380000F7
:1004430007182020221E020008F808000008F808F8
:10045300203F210101213F20000808F8080800007F
:100463000020203F2020000000000808F8080800B2
:10047300C08080807F00000008F888C0281808002A
:10048300203F20012638200008F808000000000063
:10049300203F20202020300008F8F800F8F808005A
:1004A300203F003F003F200008F830C00008F80854
:1004B300203F200007183F00E01008080810E00064
:1004C3000F10202020100F0008F808080808F0007B
:1004D300203F210101010000E01008080810E0009E
:1004E3000F18242438504F0008F888888888700033
:1004F300203F2000030C30200070880808083800D3
:100503000038202121221C00180808F808081800C8
:100513000000203F2000000008F808000008F80849
:10052300001F202020201F000878880000C83808FA
:10053300000007380E010000F80800F80008F80072
:10054300033C0700073C030008186880806818080C
:1005530020302C03032C30200838C800C83808008A
:100563000000203F2000000010080808C8380800D9
:100573002038262120201800000000FE020202007D
:100583000000007F40404000000C30C0000000002D
:10059300000000010638C00000020202FE00000055
:1005A300004040407F0000000000040202020400FB
:1005B3000000000000000000000000000000000038
:1005C3008080808080808080000202040000000020
:1005D3000000000000000000000080808080000018
:1005E3000019242222223F2008F800808000000006
:1005F300003F112020110E000000008080800000C9
:10060300000E112020201100000000808088F800D7
:10061300000E112020103F20000080808080000009
:10062300001F222222221300008080F0888888186D
:100633000020203F20200000000080808080800078
:10064300006B94949493600008F80080808000000D
:10065300203F210000203F200080989800000000E8
:100663000020203F20200000000000809898000018
:1006730000C08080807F000008F800008080800038
:10068300203F24022D302000000808F8000000005D
:100693000020203F20200000808080808080800018
:1006A300203F20003F20003F8080008080800000AA
:1006B300203F210000203F20000080808080000038
:1006C300001F202020201F00808000808000000069
:1006D30080FFA12020110E00000000808080800098
:1006E300000E112020A0FF80808080008080800089
:1006F30020203F21200001000000808080808000B6
:100703000033242424241900008080E0808000002A
:100713000000001F20200000808000000080800077
:10072300001F202020103F208080800000808080D8
:1007330000010E3008060100808000800080808068
:100743000F300C030C300F0000808000808080008D
:100753000020312E0E3120008080800000808080B8
:1007630080818E7018060100008080808080800068
:100773000021302C2221300000000000807C020286
:1007830000000000003F404000000000FF000000A8
:1007930000000000FF0000000002027C8000000057
:1007A3000040403F00000000000601010202040473
:1007B3000000000000000000F212FE12FE12F20020
:1007C3009058B4133058900000000000000000005F
:1007D3000000000000000000FF4A49484949FF00AB
:1007E300884629112947800000000000000000000E
:1007F300000000000000000084E45CC400F8084826
:10080300484808FF08098A000000000000000000B3
:100813000000000000000000003F10BF403F001E2A
:10082300925E20173846F10000000000000000002F
:1008330000000000000000000000FC242424FC252C
:100843002624FC24242404000000000000000000EF
:10085300000000000000000040308F80844C5525CC
:100863002525554C8080800000000000000000001A
:1008730000000000000000001010D0FF9050205036
:100883004C434C502040400000000000000000009A
:100893000000000000000000040300FF0041445872
:1008A300414E605847404000000000000000000037
:1008B30000000000000000001060028C00FE02F245
:1008C30002FE00F800FF000000000000000000002E
:1008D300000000000000000004047E018047300F88
:1008E30010270047807F0000000000000000000088
:1008F3000000000000000000000022322AA6A262CD
:100903002111098101000000000000000000000027
:100913000000000000000000004222130B42827E10
:1009230002020A122346000000000000000000003B
:1009330000000000000000002030AC63300088C8D5
:10094300A8998E88A8C88800000000000000000055
:1009530000000000000000002267221212804030D5
:100963000F00003F40407100000000000000000045
:0809730000000000000000007C
:10169600EF4E60157D087C07ED1DAA0470011C4AFB
:0916A60070F6EF1F70EA1E80E7E8
:0116AF002218
:1014A600F583E5822CF582E43583F583E493FF7DAD
:0114B6000134
:1014B700ED6004D2828002C282C283E4FEEEC3944E
:1014C70008748094805015C2A2EF30E704D2808060
:1014D70002C280D2A2EF25E0FF0E80E1D283D28242
:0114E70022E2
:10167600AC07ED24B0FFE4FD1214B7EC54F0C454EB
:101686000F4410FF1214B7EC540F4401FF0214B7B5
:1016F100E4FD7F8D1214B77F141214B77FAF02146B
:01170100B730
:10170200E4FD7F8D1214B77F101214B77FAE02145E
:01171200B71F
:1015A400E4FCECC3940874809480502CEC24B0FFC9
:1015B400E4FD1214B7E4FF1214B77F101214B7E459
:1015C400FBEBC3948074809480500A7D01E4FF1285
:0815D40014B70B80EC0C80CA77
:0115DC0022EC
:0612A100AA07A905AF0336
:1012A700E4FCEF24E0FBEAD3947F7480948040044D
:1012B700E4FA0909AF02AD01121676E4FCECC39417
:1012C7000874809480501D75F010EBA42CF582E40F
:1012D70035F0F583E58224CBF582E58334011214DA
:1012E700B00C80D9AF02E904FD121676E4FCECC31A
:1012F700940874809480501D75F010EBA42CF5822F
:10130700E435F0F583E58224D3F582E583340112D1
:0513170014B00C80D9A8
:01131C0022AE
:0416B0008F58A905A1
:1016B4007F017E00AD0119ED6009AD587C00120D6B
:0316C4007E80F134
:0116C7002200
:08131D008F468D478A488B4979
:10132500E4F54EF54CE54CC3954A505FC3E54A9547
:101335004C14FD7F0A1216B0AC48AD49CFCDCFCEC7
:10134500CCCE120D907C007D0A120D908D4DE54E90
:101355007020E54A14FFE54CC39F5016E54D700F0C
:10136500E54BC313854CF0A42546FF7B2080137500
:101375004E01E54BC313854CF0A42546FFE54D24EE
:0B13850030FBAD471212A1054C809A0E
:01139000223A
:0A14E8008F4F8D508B518A528953AB
:1014F200E4F554AB51AA52A9538554827583001264
:101502000D51FB6021AD50AF4F1212A17408254F4F
:10151200F54FD39478748094804007E4F54F0550DA
:061522000550055480CDC8
:0115280022A0
:04145100AA07A90538
:10145500E4F54F121676E4FCECC394107480948086
:10146500501575F040EBA424BBF582E5F034071266
:1014750014A6054F0C80E1AF02E904FD121676E4CF
:10148500FCECC3941074809480501575F040EBA467
:1014950024DBF582E5F034071214A6054F0C80E134
:0114A5002224
:041391008F3C8B3EC4
:10139500E4F543F544E53F5407700BE53F1313139C
:1013A500541FF545800AE53F131313541F04F545F3
:1013B5008D45E545C3953F5034AD45AF3C12167696
:1013C500AC3CECC3953E5021AB40AA41A942054433
:1013D500E544AE437002054314F5828E83120D5128
:0D13E500FF7D011214B70C80D9054580C5AD
:0113F20022D8
:1010C500D2817F647E00121696C2817F647E0012F3
:1010D5001696D281E4FD7FAE1214B7E4FF1214B761
:1010E5007F101214B77F401214B77F811214B77F97
:1010F500CF1214B77FA11214B77FC81214B77FA6F9
:101105001214B77FA81214B77F3F1214B77FD312FA
:1011150014B7E4FF1214B77FD51214B77F801214E9
:10112500B77FD91214B77FF11214B77FDA1214B74B
:101135007F121214B77FDB1214B77F401214B77FEA
:10114500201214B77F021214B77F8D1214B77F14C3
:101155001214B77FA41214B77FA61214B77FAF126B
:1011650014B77FAF1214B71215A4E4FDFF0216766B
:0C152900D2957B017A007D017C007F01DF
:061535008C568D57A9073A
:10153B00E4FFEFC3995027E4FEEEC39557E55664DD
:10154B0080F87480985014E4FDEDC39BEA6480F836
:0E155B0074809850030D80F10E80DE0F80D456
:01156900225F
:1016C800121529C2957B3F7D017F06121535D295EB
:0716D8007D017F05021535BD
:10164600E4F554F555755408D3E554940074809424
:1016560080401AC29500E55513F5551215293095A7
:0F166600034355807B0812152D155480DBAF55BB
:011675002252
:0215DD008F5429
:1015DF00E4F555755508D3E5559400748094804013
:1015EF0022C29500E5541392957B0F12152DD295BB
:1015FF00E554C313F5547B017D017F011215351599
:03160F005580D330
:0116120022B5
:1013F3001216C87FCC1215DD7F441215DD1216C8F4
:101403007FCC1215DD7FBE1215DD1216468F5312E7
:101413001646EFFEE553FFFDAC06E4120C97E4FB22
:10142300FA7980783D120A738F528E518D508C4F0A
:10143300E4FFFE7D207C41AB52AA51A950A84F1274
:0E1443000A73E4FBFAF9783F120982020CD01A
:10097B00020D3CE86480F8E933E83360110460F061
:10098B00ED33EC337009E8FCE9FDEAFEEBFF2204E2
:10099B0060DED3EB9FEA9EE99DE8C2E78CF0C2F7DD
:1009AB0095F0400CE8CCF8E9CDF9EACEFAEBCFFBA9
:1009BB00120D0785D0F05804700320D5B3E80470EE
:1009CB00075002B2D5020D4692D5EC0460F7E4CC89
:1009DB00C0E0C398F8603B94186008400DD0E0FB72
:1009EB00020D1EE4FBFAC9FC8028E830E406E4C9DA
:1009FB00FBE4CAFCE830E305E4C9CACBFCE85407C6
:100A0B006010F8C3E913F9EA13FAEB13FBEC13FCD0
:100A1B00D8F130F52FC3E49CFCEF9BFFEE9AFEED73
:100A2B0099FDD0E0FBEF4E4D4C701222DB03020D13
:100A3B0043EC2CFCEF33FFEE33FEED33FDED30E7F3
:100A4B00EB020D1EEF2BFFEE3AFEED39FDD0E0FB76
:100A5B0050130BBB0003020D46ED13FDEE13FEEF1F
:080A6B0013FFEC13FC020D1E49
:100A7300EC4D6011E8497017ED33EC3304600DE47D
:100A8300FCFFFEFD22E933E8330470F8020D3C124B
:100A93000D0758046009E4CC24815006285009024C
:100AA3000D46284003020D43C0E0EB4A7044B98071
:100AB30006D0E0FB020D32EF4E701CBD8008EBFF49
:100AC300EAFEE9FD80EBE98DF0A4FEE5F0020B5CA4
:100AD300E9CDF9EAFEEBFFEF89F0A4FCE5F0CE895E
:100AE300F0A42EFFE435F0CD89F0A42DFEE435F01B
:100AF3008067EF4E7005BD80D780C3EF8BF0A4AC49
:100B0300F0EE8BF0A42CFCE435F0F8EF8AF0A42C83
:100B1300E5F038FCE433CB8DF0A42CFCE5F03BF896
:100B2300EE8AF0A42CFCE5F038F8E433CF89F0A486
:100B33002CFCE5F038CF3400CE89F0A42FFFE5F08C
:100B43003EFEE433C98DF0A42EFEE5F039CD8AF0E4
:100B5300A42FFFE5F03EFEE43DFD33D0E0FB50075C
:100B63000BBB000F020D46EC2CFCEF33FFEE33FE04
:060B7300ED33FD020D1E32
:100B7900020D46EC5D046005E859047003020D3C62
:100B8900120D07580460F6EC4860F2EC7004FDFEA3
:100B9900FF22C860DB2481C85009C398600250064F
:100BA900020D439850CAF582E9294B4A7005AB8278
:100BB900020D3275F0007C1A7880C3EF9BEE9AED36
:100BC90099400DC3EF9BFFEE9AFEED99FDE842F0C7
:100BD900DC23ACF0D0E0FFD0E0FED0E0FDAB82201A
:100BE900E7101BEB60BAEC2CFCEF33FFEE33FEEDA4
:100BF90033FD020D1EE803F830E705C0F075F0007B
:100C0900EF2FFFEE33FEED33FD40B830E7C280AA87
:100C190074F8CC6480CCC86480C8F58204604FC382
:100C2900EB9FF5F0EA9E42F0E99D42F0E89C45F021
:100C3900603C501DE5825FFFE582D313CB5BCBF4AB
:100C49002B5582FB50280ABA002409B900200880D4
:100C59001DE5825BFBE582D313CF5FCFF4C3132F6E
:100C69005582FF50090EBE00050DBD00010CC3EBF6
:100C79009FF5F0EA9E42F0E99D42F0E89C45F0605C
:090C890007CC4820E701B3EC227E
:100C920075F020800E75F010800575F0087D007EDD
:100CA200007F003392D530D503120E1BEC33401077
:100CB200EF33FFEE33FEED33FDEC33FCD5F0ED22E6
:0E0CC200E5F0247EA2D513CC92E7CDCEFF2222
:100CD000EDD2E7CD33EC3392D524814006E4FFFE1C
:100CE000FDFC22FCE4CFCECDCC24E0501174FF807B
:100CF000EDC3CC13CCCD13CDCE13CECF13CF047018
:070D0000F030D5DE020E1BEE
:100D0700E9D2E7C933E833F892D5EDD2E7CD33EC32
:070D170033FC5002B2D522AB
:100D1E00EC30E7100FBF000C0EBE00080DBD000436
:100D2E000BEB6014A2D5EB13FCED92E7FD2274FFE2
:100D3E00FCFDFEFF22E480F8A2D574FF13FC7D803B
:030D4E00E480EF4F
:1012210002100CE493A3F8E493A34003F68001F2C7
:1012310008DFF48029E493A3F85407240CC8C333CE
:10124100C4540F4420C8834004F456800146F6DF9D
:10125100E4800B0102040810204080901613E47E04
:10126100019360BCA3FF543F30E509541FFEE49392
:10127100A360010ECF54C025E060A840B8E493A359
:10128100FAE493A3F8E493A3C8C582C8CAC583CA84
:10129100F0A3C8C582C8CAC583CADFE9DEE780BE3C
:0116450000A4
:100D5100BB010CE58229F582E5833AF583E0225057
:100D610006E92582F8E622BBFE06E92582F8E222A1
:0D0D7100E58229F582E5833AF583E49322BB
:100D7E00EF8DF0A4A8F0CF8CF0A428CE8DF0A42E89
:020D8E00FE2243
:100D9000BC000BBE0029EF8DF084FFADF022E4CC47
:100DA000F875F008EF2FFFEE33FEEC33FCEE9DEC10
:100DB000984005FCEE9DFE0FD5F0E9E4CEFD22ED56
:100DC000F8F5F0EE8420D21CFEADF075F008EF2FA0
:100DD000FFED33FD4007985006D5F0F222C398FD91
:050DE0000FD5F0EA222E
:100DE500C2D5EC30E709B2D5E4C39DFDE49CFCEE29
:100DF50030E715B2D5E4C39FFFE49EFE120D90C304
:100E0500E49DFDE49CFC8003120D9030D507C3E4FE
:060E15009FFFE49EFE2297
:0E0E1B00C3E49FFFE49EFEE49DFDE49CFC22E8
:00000001FF
