:0300000002067184
:0C067100787FE4F6D8FD7581530206B8CE
:0D0A0600007F087E017DF3DDFEDEFCDFFADF
:010A130022C0
:0408DC007F057E0016
:1008E000E4F50FF5108E0F8F10D3E5109400E50F8F
:1008F000940040117FFF7E0012099DE510151070D5
:05090000E8150F80E482
:0109050022CF
:10099D00E4FDFCC3ED9FEC9E5008000DBD00010C65
:0209AD0080F1D7
:0109AF002225
:1007DB00E4F580D2A27F05FE1208E07F381209E60D
:1007EB001208DC7F381209E61208DC7F381209E6A2
:1007FB007F381209E67F081209E67F011209E67FAE
:09080B00061209E67F0C0209E661
:050A3300C2A1C2A022D7
:050A3800D2A1C2A022C2
:050A3D00C2A1D2A022BD
:1009E6008F0F120A1440FB850F80120A33020A4247
:1009F6008F0E120A1440FB850E80120A3D020A422F
:050A4200C2A2D2A222B5
:1009B0008F0EED6003430E40430E801208DCAF0E35
:0309C0000209E643
:0A0A21008B0D1209B0AF0D0209F6AB
:100814008F088D098B0A8A0B890CAB0AAA0BA90CC9
:100824001203D960231208DCAF080508AB0AAA0B2F
:10083400A90C1203D9FBAD09120A217401250CF588
:090844000CE4350BF50B80D22207
:0D0A14007580FF120A38120A42E580332275
:1008B0008F118D128B13120987AF1112075C200064
:1008C00002C322AF1212075C200002C322AF131230
:0C08D000075C200002C3221209D5D322CD
:10094F008F088D09120987AF0812075C200002C3B8
:10095F0022AF0912075C200002C3221209D5D3224D
:02092D008F0831
:10092F00120987E50804FF12075C2000037F0022ED
:0F093F001208838F09D20112096F1209D5AF096F
:01094E002286
:100906002057656C636F6D6520202054445320206A
:1009160000446574656374696F6E207379737465DA
:070926006D005444533A0038
:1007A10002350000042900000000093700000000A4
:1007B10000000000000421000000000444000000CB
:1007C10000044800000000042D41C8000004253F3A
:0907D10080000004403F8000009C
:10084D007D407F9012094F7F9012092D7535008FD5
:10085D0036AC35AD36EC12031FE4FBFA79A07840C7
:10086D001200FBE4FBFA797F78431202048F248E89
:06087D00238D228C2122D4
:10048B0012084DAC35AD36EC12031FE4FBFA79A024
:10049B0078401200FBE4FBFA798078431202048F58
:1004AB00348E338D328C31E4FBFA79207841AF30C6
:1004BB00AE2FAD2EAC2D1202047B0A7AD779A3781E
:1004CB003C1200FBE4FBFAF9783F12000A8F288EEE
:1004DB00278D268C25AB28AA27A926A825AF34AEB5
:1004EB0033AD32AC311202048F4F8E4E8D4D8C4C8E
:1004FB007F857E6B7D057C43AB4FAA4EA94DA84CE7
:10050B001200FBAB4FAA4EA94DA84C1200FBAB4FF0
:10051B00AA4EA94DA84C1200FBC004C005C006C0D2
:10052B00077F297EDC7D7F7C43AB4FAA4EA94DA86C
:10053B004C1200FBAB4FAA4EA94DA84C1200FBA8C6
:10054B0004A905AA06AB07D007D006D005D0041224
:10055B000006C004C005C006C0077FF67E587D5656
:10056B007C44AB4FAA4EA94DA84C1200FBD003D034
:10057B0002D001D00012000AE4FBFAF9783F120016
:10058B00FBAB43AA42A941A8401200FB8F4B8E4AFA
:10059B008D498C48E4FFFEFDFCAB4BAA4AA949A848
:1005AB00481202A160025009E4F54BF54AF549F5F2
:1005BB0048E4FFFE7DAF7C44AB4BAA4AA949A8484F
:1005CB001202A1600D400BE4F54BF54A7549AF756E
:1005DB004844AF4BAE4AAD49AC48120358AB07AADF
:1005EB00067C037DE81203F2EF2430F5377C037DA4
:1005FB00E8AF03AE021203F27E007F64CFCDCFCE05
:10060B00CCCE1203F2EF2430F538AF4BAE4AAD49E6
:10061B00AC48120358AB07AA067C007D641203F2A8
:10062B007E007F0ACFCDCFCECCCE1203F2EF24309B
:10063B00F5397C007D0AAF03AE021203F2ED2430D4
:10064B00F53AAB37E4FD7F04120A21AB38E4FD7FAA
:10065B0005120A21AB39E4FD7F06120A21AB3AE4FD
:06066B00FD7F07020A21D9
:1009C300759850758920758DFD758BFDE4F587D27B
:0209D3008E2272
:080A2B008F993099FDC2992258
:1006FD001207DB1209C37BFF7A097906E4FDFF12AD
:10070D0008147BFF7A0979177D01E4FF1208141292
:10071D000A067F011209E67BFF7A097928E4FDFFBD
:10072D0012081412084D12048BE4FDFC74372DF8D9
:10073D00E6FF120A2B0DBD00010CED64054C70ECAB
:0F074D007F0D120A2B7F0A120A2B120A0680D484
:10098700D29700D2960000000000C2970000000036
:0609970000C296000022E0
:1009D500C29700D2960000000000D29700000000E8
:0109E50022EF
:10075C00E4FEEEC39408748094805020A806EF0841
:10076C008002C333D8FC30E704D2978002C29700D2
:10077C00D2960000000000C2960E80D60000D297E0
:10078C000000D296000000309704C2008002D20014
:04079C00C296000001
:0107A0002236
:10088300E4FFD297FEEEC39408748094805019005D
:10089300C2960000000000D2960000EF25E0FF3072
:0C08A30097010F00000E80DDC2960000DF
:0108AF002226
:10096F00200104C2978002D297000000D2960000A7
:08097F00000000C296000022F6
:100003000203C4E86480F8E933E83360110460F064
:10001300ED33EC337009E8FCE9FDEAFEEBFF220463
:1000230060DED3EB9FEA9EE99DE8C2E78CF0C2F75E
:1000330095F0400CE8CCF8E9CDF9EACEFAEBCFFB2A
:1000430012038F85D0F05804700320D5B3E80470F1
:10005300075002B2D50203CE92D5EC0460F7E4CC8C
:10006300C0E0C398F8603B94186008400DD0E0FBF3
:100073000203A6E4FBFAC9FC8028E830E406E4C9DD
:10008300FBE4CAFCE830E305E4C9CACBFCE8540747
:100093006010F8C3E913F9EA13FAEB13FBEC13FC52
:1000A300D8F130F52FC3E49CFCEF9BFFEE9AFEEDF5
:1000B30099FDD0E0FBEF4E4D4C701222DB0302039F
:1000C300CBEC2CFCEF33FFEE33FEED33FDED30E7ED
:1000D300EB0203A6EF2BFFEE3AFEED39FDD0E0FB7A
:1000E30050130BBB00030203CEED13FDEE13FEEF23
:0800F30013FFEC13FC0203A64D
:1000FB00EC4D6011E8497017ED33EC3304600DE4FF
:10010B00FCFFFEFD22E933E8330470F80203C4124E
:10011B00038F58046009E4CC24815006285009024F
:10012B0003CE2840030203CBC0E0EB4A7044B980F6
:10013B0006D0E0FB0203BAEF4E701CBD8008EBFF4C
:10014B00EAFEE9FD80EBE98DF0A4FEE5F00201E4A7
:10015B00E9CDF9EAFEEBFFEF89F0A4FCE5F0CE89DF
:10016B00F0A42EFFE435F0CD89F0A42DFEE435F09C
:10017B008067EF4E7005BD80D780C3EF8BF0A4ACCA
:10018B00F0EE8BF0A42CFCE435F0F8EF8AF0A42C05
:10019B00E5F038FCE433CB8DF0A42CFCE5F03BF818
:1001AB00EE8AF0A42CFCE5F038F8E433CF89F0A408
:1001BB002CFCE5F038CF3400CE89F0A42FFFE5F00E
:1001CB003EFEE433C98DF0A42EFEE5F039CD8AF066
:1001DB00A42FFFE5F03EFEE43DFD33D0E0FB5007DE
:1001EB000BBB000F0203CEEC2CFCEF33FFEE33FE08
:0601FB00ED33FD0203A636
:100201000203CEEC5D046005E8590470030203C4E7
:1002110012038F580460F6EC4860F2EC7004FDFEA6
:10022100FF22C860DB2481C85009C39860025006D0
:100231000203CB9850CAF582E9294B4A7005AB827B
:100241000203BA75F0007C1A7880C3EF9BEE9AED39
:1002510099400DC3EF9BFFEE9AFEED99FDE842F048
:10026100DC23ACF0D0E0FFD0E0FED0E0FDAB82209B
:10027100E7101BEB60BAEC2CFCEF33FFEE33FEED25
:1002810033FD0203A6E803F830E705C0F075F0007E
:10029100EF2FFFEE33FEED33FD40B830E7C280AA09
:1002A10074F8CC6480CCC86480C8F58204604FC304
:1002B100EB9FF5F0EA9E42F0E99D42F0E89C45F0A3
:1002C100603C501DE5825FFFE582D313CB5BCBF42D
:1002D1002B5582FB50280ABA002409B90020088056
:1002E1001DE5825BFBE582D313CF5FCFF4C3132FF0
:1002F1005582FF50090EBE00050DBD00010CC3EB78
:100301009FF5F0EA9E42F0E99D42F0E89C45F060DD
:0903110007CC4820E701B3EC22FF
:10031A0075F020800E75F010800575F0087D007E5E
:10032A00007F003392D530D503120428EC334010F5
:10033A00EF33FFEE33FEED33FDEC33FCD5F0ED2267
:0E034A00E5F0247EA2D513CC92E7CDCEFF22A3
:10035800EDD2E7CD33EC3392D524814006E4FFFE9D
:10036800FDFC22FCE4CFCECDCC24E0501174FF80FC
:10037800EDC3CC13CCCD13CDCE13CECF13CF047099
:07038800F030D5DE0204286D
:10038F00E9D2E7C933E833F892D5EDD2E7CD33ECB4
:07039F0033FC5002B2D5222D
:1003A600EC30E7100FBF000C0EBE00080DBD0004B8
:1003B6000BEB6014A2D5EB13FCED92E7FD2274FF64
:1003C600FCFDFEFF22E480F8A2D574FF13FC7D80BD
:0303D600E480EFD1
:10067D000206FDE493A3F8E493A34003F68001F290
:10068D0008DFF48029E493A3F85407240CC8C3337E
:10069D00C4540F4420C8834004F456800146F6DF4D
:1006AD00E4800B01020408102040809007A1E47E35
:1006BD00019360BCA3FF543F30E509541FFEE49342
:1006CD00A360010ECF54C025E060A840B8E493A309
:1006DD00FAE493A3F8E493A3C8C582C8CAC583CA34
:1006ED00F0A3C8C582C8CAC583CADFE9DEE780BEEC
:0107DA00001E
:1003D900BB010689828A83E0225002E722BBFE0222
:0903E900E32289828A83E4932255
:1003F200C2D5EC30E709B2D5E4C39DFDE49CFCEE26
:1004020030E715B2D5E4C39FFFE49EFE120436C363
:10041200E49DFDE49CFC800312043630D507C3E45E
:060422009FFFE49EFE2294
:0E042800C3E49FFFE49EFEE49DFDE49CFC22E5
:10043600BC000BBE0029EF8DF084FFADF022E4CCAA
:10044600F875F008EF2FFFEE33FEEC33FCEE9DEC73
:10045600984005FCEE9DFE0FD5F0E9E4CEFD22EDB9
:10046600F8F5F0EE8420D21CFEADF075F008EF2F03
:10047600FFED33FD4007985006D5F0F222C398FDF4
:050486000FD5F0EA2291
:00000001FF
