:10084C00202057656C636F6D652020544453202025
:10085C0000446574656374696F6E20737973746595
:02086C006D001D
:10082600051E0000000000042700000000042B0045
:10083600000000041041C8000004083F80000004C6
:05084600233F800000CB
:1007CE007FA7EFD394007480948040217EABEED34C
:1007DE0094007480948040127D10EDD39400748048
:0D07EE00948040031D80F31E80E41F80D521
:0107FB0022DB
:1004960012086EAC1CAD1DE412032AE4FBFA79A027
:1004A6007840120106E4FBFA7980784312020F8F36
:1004B600178E168D158C147F0A7ED77DA37C3CABD8
:1004C60013AA12A911A810120106E4FBFAF9783F43
:1004D6001200158F0B8E0A8D098C08AB0BAA0AA980
:1004E60009A808AF17AE16AD15AC1412020F8F325D
:1004F6008E318D308C2F7F857E6B7D057C43AB32B4
:10050600AA31A930A82F120106AB32AA31A930A808
:100516002F120106AB32AA31A930A82F120106C04C
:1005260004C005C006C0077F297EDC7D7F7C43AB07
:1005360032AA31A930A82F120106AB32AA31A9304E
:10054600A82F120106A804A905AA06AB07D007D052
:1005560006D005D004120011C004C005C006C007AD
:100566007FF67E587D567C44AB32AA31A930A82F3F
:10057600120106D003D002D001D000120015E4FB10
:10058600FAF9783F120106AB26AA25A924A8231258
:1005960001068F2E8E2D8D2C8C2BE4FFFEFDFCABE1
:1005A6002EAA2DA92CA82B1202AC60025009E4F544
:1005B6002EF52DF52CF52BE4FFFE7DAF7C44AB2EFE
:1005C600AA2DA92CA82B1202AC600D400BE4F52E27
:1005D600F52D752CAF752B44AF2EAE2DAD2CAC2B57
:1005E600120363AB07AA067C037DE81203FDEF2422
:1005F60030F51E7C037DE8AF03AE021203FD7E00DC
:100606007F64CFCDCFCECCCE1203FDEF2430F51FC5
:10061600AF2EAE2DAD2CAC2B120363AB07AA067C16
:10062600007D641203FD7E007F0ACFCDCFCECCCEF7
:100636001203FDEF2430F5207C007D0AAF03AE02E5
:100646001203FDED2430F521AB1E7D017F04120857
:1006560083AB1F7D017F05120883AB207D017F06DA
:0C066600120883AB217D017F070208838E
:1006FE00758902758C14E4F58A75A882D28C759072
:10070E003F12075C7BFF7A08794CE4FDFF120795D8
:10071E007BFF7A08795D7D01E4FF1207951207CE03
:10072E007F011208BE7B547D01E4FF1208837B44D7
:10073E007D017F011208837B537D017F02120883A6
:0E074E007B3D7D017F0312088312049680FB21
:03000B00020008E8
:03000800B293327E
:10086E00C292D292C2923091FDD290AFB0751C005E
:05087E008F1DC2902255
:0407FC007F057E00F7
:10080000E4F540F5418E408F41D3E5419400E54049
:10081000940040117FFF7E00120898E54115417059
:05082000E8154080E432
:0108250022B0
:10089800E4FDFCC3ED9FEC9E5008000DBD00010C6B
:0208A80080F1DD
:0108AA00222B
:10075C00E4F5A0D2827F05FE1208007F381208BE95
:10076C001207FC7F381208BE1207FC7F381208BE35
:10077C007F381208BE7F081208BE7F011208BE7FA8
:09078C00061208BE7F0C0208BE33
:05000300C281C2802251
:0508EB00D281C2802251
:0508F000C281D280224C
:1008BE008F401208DE40FB8540A01200030208F5AF
:1008CE008F3F1208DE40FB853FA01208F00208F5AC
:0508F500C282D2822244
:1008AB008F3FED6003433F40433F801207FCAF3F58
:0308BB000208BE72
:100883008F3C8D3D8B3E1207FCAD3DAF3C1208AB58
:05089300AF3E0208CE9B
:100795008F378D388B398A3A893BAB39AA3AA93BD1
:1007A5001203E460231207FCAF370537AB39AA3AC9
:1007B500A93B1203E4FBAD381208837401253BF510
:0907C5003BE4353AF53A80D222FA
:0D08DE0075A0FF1208EB1208F5E5A033220B
:10000E000203CFE86480F8E933E83360110460F04E
:10001E00ED33EC337009E8FCE9FDEAFEEBFF220458
:10002E0060DED3EB9FEA9EE99DE8C2E78CF0C2F753
:10003E0095F0400CE8CCF8E9CDF9EACEFAEBCFFB1F
:10004E0012039A85D0F05804700320D5B3E80470DB
:10005E00075002B2D50203D992D5EC0460F7E4CC76
:10006E00C0E0C398F8603B94186008400DD0E0FBE8
:10007E000203B1E4FBFAC9FC8028E830E406E4C9C7
:10008E00FBE4CAFCE830E305E4C9CACBFCE854073C
:10009E006010F8C3E913F9EA13FAEB13FBEC13FC47
:1000AE00D8F130F52FC3E49CFCEF9BFFEE9AFEEDEA
:1000BE0099FDD0E0FBEF4E4D4C701222DB03020394
:1000CE00D6EC2CFCEF33FFEE33FEED33FDED30E7D7
:1000DE00EB0203B1EF2BFFEE3AFEED39FDD0E0FB64
:1000EE0050130BBB00030203D9ED13FDEE13FEEF0D
:0800FE0013FFEC13FC0203B137
:10010600EC4D6011E8497017ED33EC3304600DE4F3
:10011600FCFFFEFD22E933E8330470F80203CF1238
:10012600039A58046009E4CC248150062850090239
:1001360003D92840030203D6C0E0EB4A7044B980D5
:1001460006D0E0FB0203C5EF4E701CBD8008EBFF36
:10015600EAFEE9FD80EBE98DF0A4FEE5F00201EF91
:10016600E9CDF9EAFEEBFFEF89F0A4FCE5F0CE89D4
:10017600F0A42EFFE435F0CD89F0A42DFEE435F091
:100186008067EF4E7005BD80D780C3EF8BF0A4ACBF
:10019600F0EE8BF0A42CFCE435F0F8EF8AF0A42CFA
:1001A600E5F038FCE433CB8DF0A42CFCE5F03BF80D
:1001B600EE8AF0A42CFCE5F038F8E433CF89F0A4FD
:1001C6002CFCE5F038CF3400CE89F0A42FFFE5F003
:1001D6003EFEE433C98DF0A42EFEE5F039CD8AF05B
:1001E600A42FFFE5F03EFEE43DFD33D0E0FB5007D3
:1001F6000BBB000F0203D9EC2CFCEF33FFEE33FEF2
:06020600ED33FD0203B11F
:10020C000203D9EC5D046005E8590470030203CFC6
:10021C0012039A580460F6EC4860F2EC7004FDFE90
:10022C00FF22C860DB2481C85009C39860025006C5
:10023C000203D69850CAF582E9294B4A7005AB8265
:10024C000203C575F0007C1A7880C3EF9BEE9AED23
:10025C0099400DC3EF9BFFEE9AFEED99FDE842F03D
:10026C00DC23ACF0D0E0FFD0E0FED0E0FDAB822090
:10027C00E7101BEB60BAEC2CFCEF33FFEE33FEED1A
:10028C0033FD0203B1E803F830E705C0F075F00068
:10029C00EF2FFFEE33FEED33FD40B830E7C280AAFE
:1002AC0074F8CC6480CCC86480C8F58204604FC3F9
:1002BC00EB9FF5F0EA9E42F0E99D42F0E89C45F098
:1002CC00603C501DE5825FFFE582D313CB5BCBF422
:1002DC002B5582FB50280ABA002409B9002008804B
:1002EC001DE5825BFBE582D313CF5FCFF4C3132FE5
:1002FC005582FF50090EBE00050DBD00010CC3EB6D
:10030C009FF5F0EA9E42F0E99D42F0E89C45F060D2
:09031C0007CC4820E701B3EC22F4
:1003250075F020800E75F010800575F0087D007E53
:10033500007F003392D530D503120433EC334010DF
:10034500EF33FFEE33FEED33FDEC33FCD5F0ED225C
:0E035500E5F0247EA2D513CC92E7CDCEFF2298
:10036300EDD2E7CD33EC3392D524814006E4FFFE92
:10037300FDFC22FCE4CFCECDCC24E0501174FF80F1
:10038300EDC3CC13CCCD13CDCE13CECF13CF04708E
:07039300F030D5DE02043357
:10039A00E9D2E7C933E833F892D5EDD2E7CD33ECA9
:0703AA0033FC5002B2D52222
:1003B100EC30E7100FBF000C0EBE00080DBD0004AD
:1003C1000BEB6014A2D5EB13FCED92E7FD2274FF59
:1003D100FCFDFEFF22E480F8A2D574FF13FC7D80B2
:0303E100E480EFC6
:0300000002067283
:0C067200787FE4F6D8FD7581410206B9DE
:1003E400BB010689828A83E0225002E722BBFE0217
:0903F400E32289828A83E493224A
:1003FD00C2D5EC30E709B2D5E4C39DFDE49CFCEE1B
:10040D0030E715B2D5E4C39FFFE49EFE120441C34D
:10041D00E49DFDE49CFC800312044130D507C3E448
:06042D009FFFE49EFE2289
:0E043300C3E49FFFE49EFEE49DFDE49CFC22DA
:10067E000206FEE493A3F8E493A34003F68001F28E
:10068E0008DFF48029E493A3F85407240CC8C3337D
:10069E00C4540F4420C8834004F456800146F6DF4C
:1006AE00E4800B0102040810204080900826E47EAE
:1006BE00019360BCA3FF543F30E509541FFEE49341
:1006CE00A360010ECF54C025E060A840B8E493A308
:1006DE00FAE493A3F8E493A3C8C582C8CAC583CA33
:1006EE00F0A3C8C582C8CAC583CADFE9DEE780BEEB
:01084B0000AC
:10044100BC000BBE0029EF8DF084FFADF022E4CC9F
:10045100F875F008EF2FFFEE33FEEC33FCEE9DEC68
:10046100984005FCEE9DFE0FD5F0E9E4CEFD22EDAE
:10047100F8F5F0EE8420D21CFEADF075F008EF2FF8
:10048100FFED33FD4007985006D5F0F222C398FDE9
:050491000FD5F0EA2286
:00000001FF
