:020000040800F2
:100000009004002001010008291900082B1900089C
:100010002F190008331900083719000800000000E4
:100020000000000000000000000000003B19000874
:100030003D190008000000003F19000841190008A0
:100040001B0100081B0100081B0100081B01000820
:100050001B0100081B0100081B0100081B01000810
:100060001B0100081B0100081B0100081B01000800
:100070001B0100081B0100081B0100081B010008F0
:100080001B0100081B0100081B0100081B010008E0
:100090001B0100081B0100081B0100081B010008D0
:1000A0001B0100081B0100081B0100081B010008C0
:1000B0001B0100081B0100081B0100081B010008B0
:1000C0001B0100081B0100081B0100081B010008A0
:1000D0001B01000843190008631900081B010008F0
:1000E0001B0100081B0100081B010008DFF80CD0F1
:1000F00002F088F900480047BB1700089004002070
:100100000648804706480047FEE7FEE7FEE7FEE7B1
:10011000FEE7FEE7FEE7FEE7FEE7FEE70302000874
:10012000ED0000080CB50020019000906C480068BC
:1001300040F480306A49086000BF6948006800F4F4
:10014000003000900198401C0190009818B9019867
:10015000B0F5A06FF1D16248006800F4003010B132
:100160000120009001E0002000900098012843D178
:100170005C48006840F010005A4908600846006872
:1001800020F0030008600846006840F002000860A4
:1001900053484068524948600846406848600846ED
:1001A000406840F4806048600846406820F47C1055
:1001B00048600846406840F4E81048600846006817
:1001C00040F08070086000BF4548006800F0007093
:1001D0000028F9D04248406820F0030040494860B8
:1001E0000846406840F00200486000BF3C48406854
:1001F00000F00C000828F9D10CBD10B5FFF792FFF4
:1002000010BD10B53648006840F001003449086060
:10021000084640683449084031494860084600684B
:10022000324908402E4908600846006820F48020C2
:1002300008600846406820F4FE0048604FF41F0044
:100240008860FFF7DAFF4FF000602949086010BDB1
:1002500010B5002100200022214B5B6803F00C0147
:1002600021B1042906D0082928D107E0214B224CCE
:10027000236027E01F4B204C236023E0184B5B6872
:1002800003F47010164B5B6803F48032022303EB17
:10029000904022B9194B4343174C23600DE0104B9B
:1002A0005B6803F4003323B1144B4343124C2360C7
:1002B00003E0104B4343104C236003E00D4B0E4C06
:1002C000236000BF00BF064B5B68C3F303130C4CF5
:1002D000E15C094B1B68CB40074C236010BD00005C
:1002E00000100240002002400000FFF8FFFFF6FE71
:1002F00008ED00E000127A000000002000093D0037
:100300000400002010B50446FA48844208D10121B7
:10031000401500F07FFE0021601500F07BFE17E025
:10032000F548844208D10121001500F073FE002138
:10033000201500F06FFE0BE0F048844208D1012147
:10034000C80300F067FE00214FF4004000F062FE99
:1003500010BD30B50246002000235068E84C204014
:100360000D790C6844EA0524204350609068E54C00
:100370002040D1E902542C434D7944EA45042043FE
:100380009060D06A20F470000C7C641EE4B22343B9
:1003900040EA0350D06230BD00210160017141711B
:1003A0008160C16001210174704721B1826842F00F
:1003B0000102826003E0826822F0010282607047DD
:1003C00021B1826842F48072826003E0826822F484
:1003D00080728260704710B50023CBB21AB14468B6
:1003E0001C43446002E044689C43446010BD816843
:1003F00041F0080181607047014600208A6802F0E0
:1004000008020AB1012000E000207047816841F035
:10041000040181607047014600208A6802F00402EE
:100420000AB1012000E00020704721B1826842F447
:10043000A002826003E0826822F4A002826070471A
:10044000014600208A6802F480020AB1012000E01F
:100450000020704710B50A4600210023416821F4AE
:100460006041531E41EA4331416010BD21B14268F1
:1004700042F40062426003E0426822F4006242609B
:100480007047F0B504460D4600200021092D11DD0E
:10049000E068A5F10A0606EB4607072606FA07F10B
:1004A0008843A5F10A0606EB460603FA06F108435F
:1004B000E0600CE0206905EB4507072606FA07F126
:1004C000884305EB450603FA06F108432061072A35
:1004D0000FDA606B561E06EB86071F2606FA07F139
:1004E0008843561E06EB860605FA06F1084360634C
:1004F00022E00D2A0FDA206BD61F06EB86071F2697
:1005000006FA07F18843D61F06EB860605FA06F1C0
:100510000843206310E0E06AA2F10D0606EB8607AF
:100520001F2606FA07F18843A2F10D0606EB8606A0
:1005300005FA06F10843E062F0BD21B1826842F499
:100540008012826003E0826822F480128260704729
:100550000146C86C80B2704766484C3000687047EE
:1005600021B1426842F48062426003E0426822F4B2
:1005700080624260704721B1426842F4805242601A
:1005800003E0426822F48052426070470A4600212C
:10059000816821F4E04111438160704721B1826894
:1005A00042F40042826003E0826822F400428260EA
:1005B000704721B1826842F40212826003E08268CF
:1005C00022F4021282607047014600208A6802F419
:1005D00000120AB1012000E000207047F0B5044687
:1005E0001546002000220026092911DDE068A1F14E
:1005F0000A0707EB470C072707FA0CF29043A1F113
:100600000A0707EB470703FA07F21043E0600CE024
:10061000206901EB410C072707FA0CF2904301EB2C
:10062000410703FA07F210432061A06BC0F30156A3
:10063000EF1C06F1010CA7EB0C0707EB870C1F273B
:1006400007FA0CF29043EF1C06F1010CA7EB0C0724
:1006500007EB870701FA07F21043A063F0BD10B55E
:100660000A4600210023816B21F44011531E41EA08
:100670000351816310BD08B5002300930090009BD7
:100680000B440093009B1A6008BD08B50246002089
:100690000090009201F12800009B184400900098FF
:1006A000006880B208BD0A4600214168164B194017
:1006B0001143416070474162826270470A460021DF
:1006C000416821F01F0111434160704740B1094961
:1006D0000831096841F40001064A0832116007E058
:1006E00004490831096821F40001024A0832116006
:1006F000704700000024014000280140003C0140F8
:10070000FFFEF0FFFDF7F1FFFFFD3FFF0246002077
:1007100013680B400BB1012000E000207047CA4372
:100720000260704770B502460020002300240B12BF
:100730005568CEB205EA060415681D4015B10CB126
:10074000012000E0002070BD00220A12D3430360A4
:100750007047000001684FF6FE72114001600021F1
:10076000016041608160C1608D49884208D18C4937
:100770000839496841F00F01894A083A51608AE016
:1007800087491431884208D185490839496841F0C0
:10079000F001834A083A51607DE08149283188425E
:1007A00008D17F490839496841F470617C4A083AA8
:1007B000516070E07A493C31884208D17849083963
:1007C000496841F47041764A083A516063E07449DF
:1007D0005031884208D172490839496841F4702182
:1007E0006F4A083A516056E06D496431884208D139
:1007F0006B490839496841F47001694A083A516007
:1008000049E067497831884208D165490839496823
:1008100041F07061624A083A51603CE061498842A7
:1008200006D1011F096841F00F01021F116032E07B
:100830005C491431884208D15A49091F096841F0BE
:10084000F001584A121F116025E0564928318842AC
:1008500008D15449091F096841F47061514A121FB7
:10086000116018E04F493C31884208D14D49091FB9
:10087000096841F470414B4A121F11600BE049496D
:100880005031884207D14749091F096841F4702156
:10089000444A121F1160704710B50022026847F6E3
:1008A000F0739A430C6A8B6823430C6923434C69A9
:1008B00023438C692343CC6923434C6A23438C6ACA
:1008C00023431A430260CB6843600B6883604B6824
:1008D000C36010BD0021016041608160C1600161A1
:1008E00041618161C161016241628162704721B1F0
:1008F000026842F00102026004E002684FF6FE73F3
:100900001A40026070471AB103680B43036002E0AB
:1009100003688B4303607047416070470146486835
:1009200080B2704701460020002201F080531BB1C5
:100930001C4B083B1A6802E0194B083B1A6802EA94
:1009400001030BB1012000E00020704700F080514E
:1009500019B11449091F086002E0114908394860BB
:10096000704701460020002201F080531BB10D4B5F
:10097000083B1A6802E00A4B083B1A6802EA0103C6
:100980000BB1012000E00020704700F0805119B148
:100990000449091F086002E00149083948607047AE
:1009A000080002400804024010B50446CC488442C6
:1009B00008D10121042000F02DFB0021042000F0CB
:1009C00029FB46E0C748844208D10121082000F0F5
:1009D00021FB0021082000F01DFB3AE0C2488442C0
:1009E00008D10121102000F015FB0021102000F09B
:1009F00011FB2EE0BD48844208D10121202000F0E7
:100A000009FB0021202000F005FB22E0B8488442C9
:100A100008D10121402000F0FDFA0021402000F023
:100A2000F9FA16E0B348844208D10121802000F091
:100A3000F1FA0021802000F0EDFA0AE0AE4884428D
:100A400007D10121801500F0E5FA0021A01500F082
:100A5000E1FA10BD10B50121084600F0DBFA0021D3
:100A6000012000F0D7FA10BD2DE9F0410246002523
:100A70000026002000230024002791F803C00CF07A
:100A80000F0591F803C00CF0100CBCF1000F03D05F
:100A900091F802C04CEA050591F800C0BCF1000FC6
:100AA00031D0146800202BE04FF0010C0CFA00F359
:100AB000B1F800C00CEA03069E4220D183004FF03B
:100AC0000F0C0CFA03F7BC4305FA03FC4CEA0404D0
:100AD00091F803C0BCF1280F06D14FF0010C0CFABD
:100AE00000FCC2F814C00AE091F803C0BCF1480F42
:100AF00005D14FF0010C0CFA00FCC2F810C0401CEC
:100B00000828D1D31460B1F800C0BCF1FF0F34DD68
:100B1000546800202EE000F1080C4FF0010808FA9C
:100B20000CF3B1F800C00CEA03069E4221D1830009
:100B30004FF00F0C0CFA03F7BC4305FA03FC4CEA28
:100B4000040491F803C0BCF1280F05D100F1080C92
:100B500008FA0CF8C2F8148091F803C0BCF1480FF1
:100B600007D100F1080C4FF0010808FA0CF8C2F8A0
:100B70001080401C0828CED35460BDE8F0814FF6A9
:100B8000FF710180022181700421C170704702460B
:100B9000002093680B400BB1012000E0002070475B
:100BA0000146886880B2704702460020D3680B4037
:100BB0000BB1012000E0002070470146C86880B2F8
:100BC000704701617047416170470AB1016100E0FF
:100BD00041617047C16070474FF480320A438261BF
:100BE0008161826182698269704702460020434BBD
:100BF00018684FF68073184040EA021008433F4BD4
:100C0000186070473E49C8617047F0B50A46002336
:100C100000240021002500F00046B6F1004F02D16B
:100C2000364EF16901E0354E7168C0F3034583B279
:100C300000F44016B6F5401F08D121F070612F4E28
:100C4000766826F070662D4F7E6012E000F4801604
:100C5000B6F5801F06D1032606FA05F4A14341F03C
:100C6000706106E0460D360103FA06F6B14341F025
:100C7000706122B1460D360103FA06F6314300F0E9
:100C80000046B6F1004F02D11C4EF16101E01B4E4F
:100C90007160F0BD30B500228B071C0F0F2303FAE3
:100CA00004F2164B08338C1053F824309343134C42
:100CB00008348D1044F8253023468C1053F8243026
:100CC0008C07240F00FA04F423430C4C08348D10D5
:100CD00044F8253030BD0A49DC3108607047000017
:100CE00000080140000C01400010014000140140C8
:100CF00000180140001C014000200140000001409C
:100D000000002042DF48006840F00100DD49086033
:100D100008464068DC490840DA49486008460068EF
:100D2000DA490840D74908600846006820F4802066
:100D300008600846406820F4FE0048604FF41F0039
:100D400088607047CF49096821F48031CD4A11602D
:100D50001146096821F480211160B0F5803F03D06D
:100D6000B0F5802F0ED106E0C649096841F4803104
:100D7000C44A116007E0C349096841F4A021C14A8F
:100D8000116000E000BF00BF704710B501460022AF
:100D9000002300204A11012A02D1BA4C236806E040
:100DA000022A02D1B74C236A01E0B64C636A01F013
:100DB0001F02012494401C400CB1012000E00020DF
:100DC00010BD38B5002000900024002500BF312060
:100DD000FFF7DBFF05460098401C00900098B0F537
:100DE000A06F01D0002DF2D03120FFF7CEFF08B167
:100DF000012400E00024204638BD01460020A14A1D
:100E0000106820F0F80040EAC10010607047A04967
:100E100008607047024600209A4B586820F47C1006
:100E200042EA01031843974B586070479849086697
:100E3000704701460020934A506820F003000843A1
:100E4000506070478F48406800F00C0070470146C2
:100E500000208C4A506820F0F00008435060704732
:100E600001460020874A506820F4E0600843506043
:100E7000704701460020834A506820F4605040EAE1
:100E8000C1005060704729B17E4A527A02437D4BBF
:100E90005A7204E07B4A527A82437A4B5A72704704
:100EA0007B49D8310860704701460020754A506878
:100EB00020F440400843506070470021714A2032BE
:100EC0001170704A82F82010012802D004280AD13B
:100ED00004E001216B4A2032117005E00521694AC6
:100EE0002032117000E000BF00BF70476949086000
:100EF00070476449096A0143624A11627047654953
:100F000044390860704730B50021002200240023D6
:100F10005C4D6D6805F00C0121B1042905D008294C
:100F200023D105E05C4D056022E05B4D05601FE0CC
:100F3000544D6D6805F47012524D6D6805F480349F
:100F4000022505EB92421CB9544D554305600BE058
:100F50004C4D6D6805F400351DB1504D554305608D
:100F600002E04D4D5543056002E04B4D056000BF6A
:100F700000BF444D6D6805F0F0010909484D6B5CF8
:100F80000568DD4045603F4D6D6805F4E061090A84
:100F9000434D6B5C4568DD4085603A4D6D6805F4F6
:100FA0006051C90A3E4D6B5C4568DD40C560354DFA
:100FB0006D6805F44041890B3A4D6B5CC568B5FB23
:100FC000F3F5056130BD29B12E4A526902432D4B1C
:100FD0005A6104E02B4A526982432A4B5A61704796
:100FE00029B1284A92690243264B9A6104E0254AB6
:100FF00092698243234B9A61704729B1214AD26991
:101000000243204BDA6104E01E4AD26982431D4B41
:10101000DA61704729B11B4AD2680243194BDA6082
:1010200004E0184AD2688243164BDA60704729B14F
:10103000144A12690243134B1A6104E0114A1269FF
:101040008243104B1A61704712494039086070475B
:101050000F49C86470470B49C87170470948406A16
:1010600040F0807007494862704701460020054AF9
:1010700092680A400AB1012000E00020704701494F
:1010800088727047001002400000FFF8FFFFF6FE74
:10109000000042428004424200127A0000093D00F2
:1010A000140000202400002010B50446FB488442B0
:1010B00009D101218803FFF7ADFF00214FF48040E3
:1010C000FFF7A8FF32E0F648844209D10121480425
:1010D000FFF7ADFF00214FF40030FFF7A8FF25E038
:1010E000F048844209D101218804FFF7A0FF0021C4
:1010F0004FF48020FFF79BFF18E0EB48844209D1B2
:101100000121C804FFF793FF00214FF40020FFF7EF
:101110008EFF0BE0E548844208D101210805FFF766
:1011200086FF00214FF48010FFF781FF10BD2DE9ED
:10113000F04786B005460E460024A24600BFA146F1
:101140000027B08900B100BF2F462C8A4CF6FF70F3
:101150000440F08804432C82AC894EF6F31004401E
:10116000B08831890843718908430443AC81AC8A53
:101170004FF6FF400440B0890443AC8201A8FFF75A
:10118000C2FEC648874202D1DDF810A001E0DDF8BA
:101190000CA0A88900F4004040B10AEBCA0000EBA3
:1011A0000A1031684900B0FBF1F807E00AEBCA0009
:1011B00000EB0A1031688900B0FBF1F86420B8FB3D
:1011C000F0F004012009642101FB1089A88900F4D2
:1011D000004040B1322000EBC900B0FBF1F000F05C
:1011E0000700044308E0322000EB09106421B0FB43
:1011F000F1F000F00F0004432C8106B0BDE8F08749
:101200004FF41651016000218180C18001810C21C1
:10121000418100218181704710B502460020108A6B
:101220004FF2FF0318400B884C8823438C882343DC
:10123000CC8823431843108210BD002101804180D7
:101240008180C180704721B1828942F4005282813D
:1012500004E082894DF6FF731A4082817047F0B531
:101260000346002400260025002040F66A17B942F4
:1012700000D100BF1846C1F3421401F01F06012738
:1012800007FA06F5012C01D10C3004E0022C01D143
:10129000103000E014301AB107682F43076002E0F5
:1012A0000768AF430760F0BD1AB1838A0B4383829E
:1012B00002E0838A8B4383827047028A4FF6F07381
:1012C0001A400282028A0A430282704782894FF2E0
:1012D000FF731A40828182890A438281704721B15B
:1012E000828942F00202828104E082894FF6FD7316
:1012F0001A4082817047028A4FF6DF731A400282D9
:10130000028A0A430282704721B1028A42F4804273
:10131000028204E0028A4BF6FF731A400282704791
:10132000C1F308028280704701468888C0F3080034
:101330007047818941F0010181817047028BD2B2EF
:101340000283028B42EA012202837047028B02F47D
:101350007F420283028B0A430283704721B1828A53
:1013600042F02002828204E0828A4FF6DF731A4044
:101370008282704721B1828A42F01002828204E0A8
:10138000828A4FF6EF731A408282704721B1828AB7
:1013900042F00802828204E0828A4FF6F7731A4014
:1013A0008282704721B1828942F40042828103E047
:1013B0008289C2F30E028281704721B1828A42F48F
:1013C0000062828204E0828A4FF2FF731A408282B6
:1013D0007047828A4FF6FB731A408282828A0A43E0
:1013E0008282704721B1828A42F00202828204E046
:1013F000828A4FF6FD731A408282704702460020AF
:10140000B1F5007F00D100BF13880B400BB1012064
:1014100000E00020704701F40072B2F5007F00D1B7
:1014200000BFCA430280704770B502460024002303
:101430000025002040F66A16B14200D100BFC1F37A
:10144000421501F01F03012606FA03F3012D02D114
:101450009689334006E0022D02D1168A334001E01E
:10146000968A33400C12012606FA04F4168834409A
:1014700013B10CB1012000E0002070BD10B50022B6
:10148000002340F66A14A14200D100BF0A120124D1
:101490009440A3B2DC43048010BD0000003801403A
:1014A0000044004000480040004C00400050004014
:1014B00008B5012141F21D00FFF792FD0121D0483E
:1014C000FFF7A3FB4FF4FF60ADF8000010208DF88C
:1014D000030001208DF802006946CA48FFF7C4FAEC
:1014E0004FF41840ADF8000010208DF803000120E3
:1014F0008DF802006946C448FFF7B6FA0220ADF83D
:10150000000048208DF8030003208DF80200694692
:10151000BD48FFF7A9FA08BD2DE9F04F93B0BB48CD
:10152000008800F046FE81464FF08B4100F0EAFC57
:10153000044600F06DFE07464FF06632B44B00F0F3
:10154000C6FD054600F077FEB2490860B249B348CF
:10155000006800F0D7FC119000F05AFE824600228D
:10156000AF4B00F0AEFD8046AE4AAF4B00F0AFFD92
:1015700006460022AD4B00F003FD044600F05BFE82
:10158000AB49086008460168A248006800F0BAFC50
:10159000A8490860A848006800F03AFECDE90E01AD
:1015A000A448006800F034FE04469E4A5242A34B11
:1015B00000F08DFDCDE908019E48006800F028FE8E
:1015C00004460D469B48006800F022FE80469C4A77
:1015D0009C4B00F07CFD064622462B4600F077FD32
:1015E000CDE904019348006800F012FE04460D4660
:1015F0009048006800F00CFECDE900018D480068BD
:1016000000F006FE8246904A904B00F060FD0646D0
:10161000DDE9002300F05BFD804622462B4600F00A
:1016200056FDCDE90201DDE9042300F04AFDCDE9D4
:101630000601DDE9082300F0A3FC0022844BCDE97C
:101640000A0100F044FDCDE90C01DDE90E2300F0B4
:101650003EFDCDE9100100F0EEFD7E49086000215D
:101660007C48006800F004FE02D800207949086038
:1016700079497848006800F005FE02D2764875493D
:1016800008607448006800F0AAFD4FF47A7190FB7E
:10169000F1F03030714908706E48006800F09FFD2D
:1016A0004FF47A7190FBF1F201FB1200642190FB80
:1016B000F1F03030694948706648006800F08FFDED
:1016C000642190FBF1F201FB12000A2190FBF1F082
:1016D0003030624988705F48006800F080FD0A2160
:1016E00090FBF1F201FB120030305C49C8700846F3
:1016F00002780021052000F0F4F9584842780021D2
:10170000062000F0EEF9554882780021072000F00D
:10171000E8F95248C2780021082000F0E2F913B03D
:10172000BDE8F08F10B500F0A6FB3C490860084604
:10173000006800F054FD4FF47A7190FBF1F201FB68
:101740001200642190FBF1F03030444908713348B5
:10175000006800F044FD642190FBF1F201FB1200EF
:101760000A2190FBF1F030303C4948712E208871FD
:101770002A48006800F033FD0A2190FBF1F201FBDA
:10178000120030303549C871084602790121052020
:1017900000F0A7F9314842790121062000F0A1F9B3
:1017A0002E4882790121072000F09BF92B48C2794D
:1017B0000121082000F095F910BDFFF779FE00F037
:1017C00052FB00F057F800F060FA00F0AAF924A2EA
:1017D0000021084600F091F923A20121002000F029
:1017E0008CF90BE0FFF79EFFFFF796FE1B4920A048
:1017F00000F02AFE4FF47A7000F0C8F8F2E700001B
:1018000000023000000C0140000801407000002080
:1018100066660A4050000020000020415C00002065
:10182000000039407B14AE47E17A943F0000F03F5E
:101830006000002064000020680000201ECB8A4069
:10184000EC51B81E85FB6F403D0AD7A370AD6040D8
:101850000000E03F540000200000AF44780000206A
:101860005444533A000000005420203A0000000085
:101870002573000000B585B0012144F20400FFF794
:10188000AFFB4FF40070ADF8100018208DF8130076
:1018900003208DF8120004A92148FFF7E5F84FF462
:1018A0008060ADF8100004208DF8130004A91C48D6
:1018B000FFF7DAF84FF4E13000900020ADF80400B3
:1018C000ADF80600ADF80800ADF80C000C20ADF83E
:1018D0000A0069461348FFF72AFC01211148FFF767
:1018E000B2FC05B000BD70B504460D46E1B20D482E
:1018F000FFF716FD00BF40210A48FFF77FFD0028D3
:10190000F9D0204670BD10B5044600BF202105481F
:10191000FFF774FD0028F9D00248FFF705FD10BD60
:101920000008014000380140704700BFFEE700BFDB
:10193000FEE700BFFEE700BFFEE770477047704755
:10194000704710B540F225510748FFF76DFD38B1DB
:101950000548FFF7E9FCC4B2214604A000F074FD7D
:1019600010BD70477047000000380140256300003B
:1019700000BF062100E000BF0A1EA1F1010399B2D9
:10198000F9D1421E92B2101EF3D1704710B5044631
:1019900000BFFA20FFF7ECFFFA20FFF7E9FFFA207B
:1019A000FFF7E6FFFA20FFF7E3FF601E80B2041E98
:1019B000EFD110BD06E0082100BF0A1EA1F101030E
:1019C000D9B2FAD1021EA0F10100F4D1704710B5CE
:1019D000044603E040F24C40FFF7ECFF201EA4F168
:1019E0000104F7D110BD10B504464FF4004164481E
:1019F000FFF7E9F80120FFF7DDFF4FF400616048D1
:101A0000FFF7E1F80120FFF7D5FF4FF480515C4864
:101A1000FFF7D9F84FF49670FFF7CCFFE000594973
:101A200008604FF49670FFF7C5FF4FF4004154482B
:101A3000FFF7C7F84FF49670FFF7BCFF4FF4004173
:101A40004F48FFF7C0F84FF49670FFF7B3FF4FF41D
:101A500000414B48FFF7B7F810BD10B504460A2007
:101A6000FFF7B5FF4FF400414548FFF7ACF8012000
:101A7000FFF7A0FF4FF400614148FFF7A2F80120F3
:101A8000FFF798FF4FF480513D48FFF79CF8012085
:101A9000FFF790FFE0003B4908600120FFF78AFF55
:101AA0004FF400413648FFF78CF80120FFF78FFF15
:101AB0004FF400413248FFF786F810BD10B5012001
:101AC000FFF791FF10BD70B504460D4625B144F0F7
:101AD000C000FFF788FF03E044F08000FFF783FFBA
:101AE00070BD70B505460E46144631462846FFF7D0
:101AF000EAFF2046FFF7B1FF70BD70B505460E4600
:101B0000144631462846FFF7DEFF06E02078FFF74F
:101B1000A4FF641C0120FFF75AFF20780028F5D1AC
:101B200070BD10B53220FFF752FF3820FFF75BFF82
:101B30000A20FFF74CFF3820FFF755FF0A20FFF778
:101B400046FF3820FFF74FFF0A20FFF740FF08202D
:101B5000FFF749FF0A20FFF73AFF0120FFF743FF95
:101B60000A20FFF734FF0620FFF73DFF0A20FFF7AA
:101B70002EFF0C20FFF737FF0A20FFF728FF10BDCC
:101B8000000801400C0C014008B501210420FFF7BA
:101B900027FA0420ADF8000000208DF80300694604
:101BA0003D48FEF761FF08BD00B591B00121084630
:101BB000FFF709FA01214802FFF712FA3748FEF74A
:101BC000C9FD37480690374807900020089001204B
:101BD000099000200A900B904FF480700C908000C8
:101BE0000D9020200E9000020F900020109006A96A
:101BF0002A48FEF751FE01212848FEF778FE002012
:101C000001908DF8080001208DF809004FF4602044
:101C100003900020049001208DF8140001A92048B1
:101C20004C38FEF796FB4FF44040FFF73DF9052393
:101C3000012202211A484C38FEF723FC01211848E2
:101C40004C38FEF7BDFB012115484C38FEF7ADFBC3
:101C500013484C38FEF7CBFB00BF11484C38FEF759
:101C6000CBFB0028F9D10E484C38FEF7CFFB00BF64
:101C70000B484C38FEF7CFFB0028F9D1012108486A
:101C80004C38FEF7D2FB11B000BD10B5FFF77CFF5A
:101C9000FFF78AFF10BD0000000801400800024065
:101CA0004C2401407000002008B501210820FFF7F6
:101CB00097F94FF48050ADF8000010208DF8030024
:101CC00003208DF8020069468B48FEF7CDFE4FF4E5
:101CD00080518948FEF775FF08BD08B54FF4805064
:101CE000ADF8000048208DF8030069468248FEF7F1
:101CF000BBFE08BD08B54FF48050ADF800001020C1
:101D00008DF8030003208DF8020069467A48FEF73B
:101D1000ABFE08BD10B5FFF7EDFF4FF480517648DC
:101D2000FEF751FF40F2EE20FFF722FE4FF4805104
:101D30007148FEF746FF0F20FFF71AFE10BD10B5E1
:101D40000024FFF7CAFF04E0601CC4B20120FFF7C3
:101D50000FFE4FF480516848FEF719FF08B1642C5C
:101D6000F2DB642C01DB012010BD002404E0601CC8
:101D7000C4B20120FFF7FCFD4FF480515E48FEF72E
:101D800006FF08B9F02CF2DBF02C01DB0120EBE7B9
:101D90000020E9E710B5FFF7ADFF4FF4805156483A
:101DA000FEF711FF0A20FFF7E3FDFFF796FF4FF460
:101DB00080515148FEF7EBFE012801D1012400E0DB
:101DC00000242D20FFF7D4FD204610BD70B500265D
:101DD000002408E0FFF7DEFF054605FA04F0304373
:101DE000C6B2601CC4B2082CF4DB304670BD70B5BE
:101DF0000446FFF77FFF002526E004F0010664108B
:101E000086B14FF480513C48FEF7DDFE0820FFF715
:101E1000AFFD4FF480513848FEF7D3FE3A20FFF76C
:101E2000A7FD0FE04FF480513348FEF7CCFE46206B
:101E3000FFF79EFD4FF480512F48FEF7C2FE0220AF
:101E4000FFF796FD681CC5B2082DD6DB70BD10B536
:101E5000FFF760FFFFF773FFCC20FFF7C8FF4420B8
:101E6000FFF7C5FF10BD10B5FFF71EFFFFF752FFCC
:101E7000FFF765FF10BD2DE9F05FFFF74BFFFFF7A0
:101E80005EFFCC20FFF7B3FF4420FFF7B0FFFFF762
:101E900041FFFFF754FFCC20FFF7A9FFBE20FFF75B
:101EA000A6FFFFF793FF8346FFF790FF82464FEAB6
:101EB0000A2004B244EA0B04002C0DDAE043401C73
:101EC00000F07CF9074600220C4B00F000F90546B3
:101ED00000F0B1F981460BE0204600F06FF90746AB
:101EE0000022074B00F0F3F8054600F0A4F9814604
:101EF0004846BDE8F09F0000000C01400000B03FE4
:101F00000000E43F30B480EA010202F0004530F006
:101F1000004221F0004013D090B1C30DD40DC2F3A4
:101F20001601C0F31600E41A41F4000140F4000267
:101F30007D34914201D3641C00E04900002C02DA98
:101F400030BC002070474FF400000023914201D3C1
:101F5000891A034340084FEA4101F7D151B1914238
:101F600002D14FF0004105E002D24FF0010101E043
:101F70006FF0010103EBC450284430BC00F0ADB950
:101F80002DE9FE4F804681EA0300C00F0C46009009
:101F900021F0004123F00045B8EB0200A94105D231
:101FA0004046214690461C460B46024623F0004020
:101FB000104347D0270DC7F30A00C3F30A5102901C
:101FC000401A019040286BDAC3F3130040F4801BE1
:101FD0000098924620B10023D2EB030A63EB0B0B6F
:101FE00001985946C0F14002504600F055F90646A6
:101FF0000D4650465946019A00F05DF910EB080075
:102000006141002487EA115284EAE7731A4340D001
:10201000009A62B3019A012A4FEA075215DC001BAD
:1020200061EB02014FF0004202EA0752CDE90042A3
:10203000001C41F5801132462B4600F094F903B0A4
:10204000BDE8F08F40462146F9E7001B61EB020135
:10205000001C41F5801300185B412018A2F5001701
:1020600047EB030140EAD570B6196D4111E06D08E8
:102070004FEA360645EAC0754FEA0752001B61EB8E
:102080000201001C41F5801149084FEA3000001997
:10209000514132462B4603B0BDE8F04F00F054B931
:1020A0000098012240000023D0EB020263EBE073B2
:1020B000009821464FEAE074B8EB000061EB0401A0
:1020C000E9E783F000435BE781F0004158E72DE941
:1020D000FE4F81EA030404F0004421F00041009423
:1020E0004FF0000B23F0004350EA01045ED052EAA7
:1020F00003045BD0C3F30A54C1F30A552C44A4F281
:10210000F3340194A0FB0254C1F3130141F4801194
:10211000C3F3130343F4801301FB024400FB034E9B
:10212000840A970A44EA815447EA8357A4FB076864
:1021300002958D0A05FB07854FEA932C04FB0C548E
:102140002705029D4FEA065847EA1637B5EB080502
:102150006EEB070C870E920E47EA811742EA831254
:10216000A7FB0201B6EB0B0164EB00042B0D43EA65
:102170000C335E1844EB1C50DA465146E7FB020173
:10218000C5F313044FEA0B3343EA14534FEA043206
:10219000019C43EA0603A4F10C040294009CCDE9DF
:1021A00000B400F0E0F803B0BDE8F08F0020014675
:1021B000F9E796230022114600F098B80EB5C10F3A
:1021C00080EAE0700844CA07002140F233438DE8FA
:1021D0000E000A460B4600F0C6F803B000BD00F042
:1021E000004220F00040C10DC0F3160040F4000092
:1021F0007F2901DA00207047962903DCC1F196019E
:10220000C84001E096398840002AF4D04042704727
:1022100000F0004230F000400AD0C10D01F56071BD
:10222000C0F3160042EA0151C2084007114370474B
:1022300000200146704701F0004330B421F0004116
:1022400050EA010206D00A0DA2F56072C1F3130133
:10225000002A02DC30BC00207047440F44EAC1046D
:10226000C100E01830BC00EBC25000F036B80000EE
:10227000002801DBC0F10040002901DBC1F1004171
:1022800081427047002801DBC0F10040002901DBDA
:10229000C1F1004188427047202A04DB203A00FA4D
:1022A00002F1002070479140C2F1200320FA03F3AD
:1022B000194390407047202A06DBCB17203A41FA99
:1022C00002F043EAE07306E041FA02F3D040C2F1C3
:1022D000200291400843194670470029A8BF704763
:1022E000401C490008BF20F00100704710B4B0FA4C
:1022F00080FC00FA0CF050EA010404BF10BC7047E7
:1023000049B1CCF1200421FA04F411FA0CF118BF00
:10231000012121430843A3EB0C01CB1D4FEA0061CF
:102320004FEA102042BF002010BC704700EBC350A2
:1023300010440029A4BF10BC7047401C490008BFCE
:1023400020F0010010BC704710B5141E73F100049A
:1023500008DA401C41F1000192185B411A4301D197
:1023600020F0010010BD2DE9F04D92469B4611B1C1
:10237000B1FA81F202E0B0FA80F220329046FFF723
:102380008BFF04460F4640EA0A0041EA0B01534620
:102390005A46084313D0114653EA010019D0C8F138
:1023A0004002504600F040F805460E465046594659
:1023B0004246FFF771FF084305D0012004E02046A4
:1023C0003946BDE8F08D0020054346EAE0762C430F
:1023D00037430A986305E40AA0EB08000022FD0ACF
:1023E00044EA47540A3002D500200146E9E70105D6
:1023F00010196941DDE9084500196941BDE8F04D52
:10240000A2E70000064C074D06E0E06840F001033B
:1024100094E8070098471034AC42F6D3FDF76AFE03
:102420005C2500087C250008202A04DB203A21FADC
:1024300002F00021704721FA02F3D040C2F12002DD
:1024400091400843194670470FB4054B10B503A9D6
:10245000044A029800F017F810BC5DF814FB000065
:10246000E71800087400002002E008C8121F08C125
:10247000002AFAD170477047002001E001C1121F05
:10248000002AFBD170472DE9F84F994692468846BD
:102490000546002706E025280AD051464A469047BF
:1024A0006D1C7F1C28780028F5D13846BDE8F88FD0
:1024B000002315F8011F18462E2915D115F8011F04
:1024C00004232A290DD06FF02F022978A1F13004BE
:1024D000092C09D800EB800002EB400008446D1C79
:1024E000F3E758F8040B6D1C2A78002ADDD0632A24
:1024F00007D0732A0FD0104651464A4690477F1C9A
:102500002AE018F8042B8DF8002000218DF8011026
:102510006E46012103E058F8046B4FF0FF315A0773
:102520004FF0000401D409E0641C84420BDA8C42B1
:10253000FADB325D002AF7D105E0641C8C42FCDB3B
:10254000305D0028F9D1274404E016F8010B51460C
:102550004A469047641EF8D26D1CA3E77C2500080C
:10256000000000207800000068240008F42500081E
:1025700078000020180400007824000800A24A0413
:102580000000000000000000010203040607080923
:102590000000000001020304010203040607080909
:1025A0000204060800000000000000000000000017
:1025B000000000000000000000000000000000001B
:1025C000000000000000000000000000000000000B
:1025D0000000000000000000000000000000803F3C
:1025E000000000000000803F00000000000000002C
:0425F00000000000E7
:04000005080000ED02
:00000001FF
